{"abi":[{"type":"constructor","inputs":[],"stateMutability":"nonpayable"},{"type":"receive","stateMutability":"payable"},{"type":"function","name":"LFJ_ROUTER","inputs":[],"outputs":[{"name":"","type":"address","internalType":"address"}],"stateMutability":"view"},{"type":"function","name":"MONDAY_ROUTER","inputs":[],"outputs":[{"name":"","type":"address","internalType":"address"}],"stateMutability":"view"},{"type":"function","name":"PANCAKE_ROUTER","inputs":[],"outputs":[{"name":"","type":"address","internalType":"address"}],"stateMutability":"view"},{"type":"function","name":"UNISWAP_ROUTER","inputs":[],"outputs":[{"name":"","type":"address","internalType":"address"}],"stateMutability":"view"},{"type":"function","name":"USDC","inputs":[],"outputs":[{"name":"","type":"address","internalType":"address"}],"stateMutability":"view"},{"type":"function","name":"WMON","inputs":[],"outputs":[{"name":"","type":"address","internalType":"address"}],"stateMutability":"view"},{"type":"function","name":"executeArb","inputs":[{"name":"sellRouter","type":"uint8","internalType":"enum MonadAtomicArb.Router"},{"name":"sellRouterData","type":"bytes","internalType":"bytes"},{"name":"buyRouter","type":"uint8","internalType":"enum MonadAtomicArb.Router"},{"name":"buyPoolFee","type":"uint24","internalType":"uint24"},{"name":"minWmonOut","type":"uint256","internalType":"uint256"},{"name":"minProfit","type":"uint256","internalType":"uint256"}],"outputs":[{"name":"profit","type":"int256","internalType":"int256"}],"stateMutability":"nonpayable"},{"type":"function","name":"executeArbUnchecked","inputs":[{"name":"sellRouter","type":"uint8","internalType":"enum MonadAtomicArb.Router"},{"name":"sellRouterData","type":"bytes","internalType":"bytes"},{"name":"buyRouter","type":"uint8","internalType":"enum MonadAtomicArb.Router"},{"name":"buyPoolFee","type":"uint24","internalType":"uint24"},{"name":"minWmonOut","type":"uint256","internalType":"uint256"}],"outputs":[{"name":"profit","type":"int256","internalType":"int256"}],"stateMutability":"nonpayable"},{"type":"function","name":"getBalances","inputs":[],"outputs":[{"name":"wmon","type":"uint256","internalType":"uint256"},{"name":"usdc","type":"uint256","internalType":"uint256"}],"stateMutability":"view"},{"type":"function","name":"owner","inputs":[],"outputs":[{"name":"","type":"address","internalType":"address"}],"stateMutability":"view"},{"type":"function","name":"setupApprovals","inputs":[],"outputs":[],"stateMutability":"nonpayable"},{"type":"function","name":"withdrawAllToken","inputs":[{"name":"token","type":"address","internalType":"address"}],"outputs":[],"stateMutability":"nonpayable"},{"type":"function","name":"withdrawToken","inputs":[{"name":"token","type":"address","internalType":"address"},{"name":"amount","type":"uint256","internalType":"uint256"}],"outputs":[],"stateMutability":"nonpayable"},{"type":"event","name":"ArbExecuted","inputs":[{"name":"sellRouter","type":"uint8","indexed":true,"internalType":"uint8"},{"name":"buyRouter","type":"uint8","indexed":true,"internalType":"uint8"},{"name":"wmonIn","type":"uint256","indexed":false,"internalType":"uint256"},{"name":"wmonOut","type":"uint256","indexed":false,"internalType":"uint256"},{"name":"profit","type":"int256","indexed":false,"internalType":"int256"}],"anonymous":false},{"type":"error","name":"InvalidRouter","inputs":[]},{"type":"error","name":"OnlyOwner","inputs":[]},{"type":"error","name":"SwapFailed","inputs":[{"name":"swapIndex","type":"uint8","internalType":"uint8"}]},{"type":"error","name":"Unprofitable","inputs":[{"name":"wmonBefore","type":"uint256","internalType":"uint256"},{"name":"wmonAfter","type":"uint256","internalType":"uint256"}]}],"bytecode":{"object":"0x60a060405234801561000f575f80fd5b5033608052608051611f5f61005d5f395f81816101ca0152818161042401528181610ac501528181610b5901528181610bf001528181610d1201528181610d6d0152610fe90152611f5f5ff3fe6080604052600436106100d0575f3560e01c80639e281a981161007c578063d826492011610057578063d826492014610257578063e08836dd1461027e578063e19e8b74146102a5578063f1435d29146102c4575f80fd5b80639e281a98146101ec578063ae4dd0fc1461020b578063d00288ac1461022a575f80fd5b806389a30271116100ac57806389a302711461017c5780638a988a47146101a35780638da5cb5b146101b9575f80fd5b8062113e08146100db57806323b5d76d146101095780633d5a49ee14610155575f80fd5b366100d757005b5f80fd5b3480156100e6575f80fd5b506100ef6102eb565b604080519283526020830191909152015b60405180910390f35b348015610114575f80fd5b5061013073fe951b693a2fe54be5148614b109e316b567632f81565b60405173ffffffffffffffffffffffffffffffffffffffff9091168152602001610100565b348015610160575f80fd5b506101307318556da13313f3532c54711497a8fedac273220e81565b348015610187575f80fd5b5061013073754704bc059f8c67012fed69bc8a327a5aafb60381565b3480156101ae575f80fd5b506101b761040c565b005b3480156101c4575f80fd5b506101307f000000000000000000000000000000000000000000000000000000000000000081565b3480156101f7575f80fd5b506101b7610206366004611a51565b610aad565b348015610216575f80fd5b506101b7610225366004611a79565b610bd8565b348015610235575f80fd5b50610249610244366004611afe565b610d54565b604051908152602001610100565b348015610262575f80fd5b5061013073fe31f71c1b106eac32f1a19239c9a9a72ddfb90081565b348015610289575f80fd5b506101307321114915ac6d5a2e156931e20b20b038ded0be7c81565b3480156102b0575f80fd5b506102496102bf366004611b81565b610fd0565b3480156102cf575f80fd5b50610130733bd359c1119da7da1d913d1c4d2b7c461115433a81565b6040517f70a082310000000000000000000000000000000000000000000000000000000081523060048201525f908190733bd359c1119da7da1d913d1c4d2b7c461115433a906370a0823190602401602060405180830381865afa158015610355573d5f803e3d5ffd5b505050506040513d601f19601f820116820180604052508101906103799190611bfa565b6040517f70a0823100000000000000000000000000000000000000000000000000000000815230600482015290925073754704bc059f8c67012fed69bc8a327a5aafb603906370a0823190602401602060405180830381865afa1580156103e2573d5f803e3d5ffd5b505050506040513d601f19601f820116820180604052508101906104069190611bfa565b90509091565b3373ffffffffffffffffffffffffffffffffffffffff7f0000000000000000000000000000000000000000000000000000000000000000161461047b576040517f5fc483c500000000000000000000000000000000000000000000000000000000815260040160405180910390fd5b6040517f095ea7b300000000000000000000000000000000000000000000000000000000815273fe31f71c1b106eac32f1a19239c9a9a72ddfb90060048201527fffffffffffffffffffffffffffffffffffffffffffffffffffffffffffffffff6024820152733bd359c1119da7da1d913d1c4d2b7c461115433a9063095ea7b3906044016020604051808303815f875af115801561051c573d5f803e3d5ffd5b505050506040513d601f19601f820116820180604052508101906105409190611c11565b506040517f095ea7b30000000000000000000000000000000000000000000000000000000081527321114915ac6d5a2e156931e20b20b038ded0be7c60048201527fffffffffffffffffffffffffffffffffffffffffffffffffffffffffffffffff6024820152733bd359c1119da7da1d913d1c4d2b7c461115433a9063095ea7b3906044016020604051808303815f875af11580156105e2573d5f803e3d5ffd5b505050506040513d601f19601f820116820180604052508101906106069190611c11565b506040517f095ea7b300000000000000000000000000000000000000000000000000000000815273fe951b693a2fe54be5148614b109e316b567632f60048201527fffffffffffffffffffffffffffffffffffffffffffffffffffffffffffffffff6024820152733bd359c1119da7da1d913d1c4d2b7c461115433a9063095ea7b3906044016020604051808303815f875af11580156106a8573d5f803e3d5ffd5b505050506040513d601f19601f820116820180604052508101906106cc9190611c11565b506040517f095ea7b30000000000000000000000000000000000000000000000000000000081527318556da13313f3532c54711497a8fedac273220e60048201527fffffffffffffffffffffffffffffffffffffffffffffffffffffffffffffffff6024820152733bd359c1119da7da1d913d1c4d2b7c461115433a9063095ea7b3906044016020604051808303815f875af115801561076e573d5f803e3d5ffd5b505050506040513d601f19601f820116820180604052508101906107929190611c11565b506040517f095ea7b300000000000000000000000000000000000000000000000000000000815273fe31f71c1b106eac32f1a19239c9a9a72ddfb90060048201527fffffffffffffffffffffffffffffffffffffffffffffffffffffffffffffffff602482015273754704bc059f8c67012fed69bc8a327a5aafb6039063095ea7b3906044016020604051808303815f875af1158015610834573d5f803e3d5ffd5b505050506040513d601f19601f820116820180604052508101906108589190611c11565b506040517f095ea7b30000000000000000000000000000000000000000000000000000000081527321114915ac6d5a2e156931e20b20b038ded0be7c60048201527fffffffffffffffffffffffffffffffffffffffffffffffffffffffffffffffff602482015273754704bc059f8c67012fed69bc8a327a5aafb6039063095ea7b3906044016020604051808303815f875af11580156108fa573d5f803e3d5ffd5b505050506040513d601f19601f8201168201806040525081019061091e9190611c11565b506040517f095ea7b300000000000000000000000000000000000000000000000000000000815273fe951b693a2fe54be5148614b109e316b567632f60048201527fffffffffffffffffffffffffffffffffffffffffffffffffffffffffffffffff602482015273754704bc059f8c67012fed69bc8a327a5aafb6039063095ea7b3906044016020604051808303815f875af11580156109c0573d5f803e3d5ffd5b505050506040513d601f19601f820116820180604052508101906109e49190611c11565b506040517f095ea7b30000000000000000000000000000000000000000000000000000000081527318556da13313f3532c54711497a8fedac273220e60048201527fffffffffffffffffffffffffffffffffffffffffffffffffffffffffffffffff602482015273754704bc059f8c67012fed69bc8a327a5aafb6039063095ea7b3906044016020604051808303815f875af1158015610a86573d5f803e3d5ffd5b505050506040513d601f19601f82011682018060405250810190610aaa9190611c11565b50565b3373ffffffffffffffffffffffffffffffffffffffff7f00000000000000000000000000000000000000000000000000000000000000001614610b1c576040517f5fc483c500000000000000000000000000000000000000000000000000000000815260040160405180910390fd5b6040517fa9059cbb00000000000000000000000000000000000000000000000000000000815273ffffffffffffffffffffffffffffffffffffffff7f0000000000000000000000000000000000000000000000000000000000000000811660048301526024820183905283169063a9059cbb906044015b6020604051808303815f875af1158015610baf573d5f803e3d5ffd5b505050506040513d601f19601f82011682018060405250810190610bd39190611c11565b505050565b3373ffffffffffffffffffffffffffffffffffffffff7f00000000000000000000000000000000000000000000000000000000000000001614610c47576040517f5fc483c500000000000000000000000000000000000000000000000000000000815260040160405180910390fd5b6040517f70a082310000000000000000000000000000000000000000000000000000000081523060048201525f9073ffffffffffffffffffffffffffffffffffffffff8316906370a0823190602401602060405180830381865afa158015610cb1573d5f803e3d5ffd5b505050506040513d601f19601f82011682018060405250810190610cd59190611bfa565b6040517fa9059cbb00000000000000000000000000000000000000000000000000000000815273ffffffffffffffffffffffffffffffffffffffff7f000000000000000000000000000000000000000000000000000000000000000081166004830152602482018390529192509083169063a9059cbb90604401610b93565b5f3373ffffffffffffffffffffffffffffffffffffffff7f00000000000000000000000000000000000000000000000000000000000000001614610dc4576040517f5fc483c500000000000000000000000000000000000000000000000000000000815260040160405180910390fd5b6040517f70a082310000000000000000000000000000000000000000000000000000000081523060048201525f90733bd359c1119da7da1d913d1c4d2b7c461115433a906370a0823190602401602060405180830381865afa158015610e2c573d5f803e3d5ffd5b505050506040513d601f19601f82011682018060405250810190610e509190611bfa565b9050610e5d8989896111f9565b610e688686866112ab565b6040517f70a082310000000000000000000000000000000000000000000000000000000081523060048201525f90733bd359c1119da7da1d913d1c4d2b7c461115433a906370a0823190602401602060405180830381865afa158015610ed0573d5f803e3d5ffd5b505050506040513d601f19601f82011682018060405250810190610ef49190611bfa565b9050610f008282611c5d565b9250610f0c8483611c83565b811015610f54576040517f4482de3e00000000000000000000000000000000000000000000000000000000815260048101839052602481018290526044015b60405180910390fd5b866003811115610f6657610f66611c9c565b60ff168a6003811115610f7b57610f7b611c9c565b604080518581526020810185905290810186905260ff91909116907ff90525f10ae3738475f9bb823e7315be918cc41406be65f8ef776738956c7aef9060600160405180910390a35050979650505050505050565b5f3373ffffffffffffffffffffffffffffffffffffffff7f00000000000000000000000000000000000000000000000000000000000000001614611040576040517f5fc483c500000000000000000000000000000000000000000000000000000000815260040160405180910390fd5b6040517f70a082310000000000000000000000000000000000000000000000000000000081523060048201525f90733bd359c1119da7da1d913d1c4d2b7c461115433a906370a0823190602401602060405180830381865afa1580156110a8573d5f803e3d5ffd5b505050506040513d601f19601f820116820180604052508101906110cc9190611bfa565b90506110d98888886111f9565b6110e48585856112ab565b6040517f70a082310000000000000000000000000000000000000000000000000000000081523060048201525f90733bd359c1119da7da1d913d1c4d2b7c461115433a906370a0823190602401602060405180830381865afa15801561114c573d5f803e3d5ffd5b505050506040513d601f19601f820116820180604052508101906111709190611bfa565b905061117c8282611c5d565b925085600381111561119057611190611c9c565b60ff168960038111156111a5576111a5611c9c565b604080518581526020810185905290810186905260ff91909116907ff90525f10ae3738475f9bb823e7315be918cc41406be65f8ef776738956c7aef9060600160405180910390a350509695505050505050565b5f611203846113fa565b73ffffffffffffffffffffffffffffffffffffffff168383604051611229929190611cc9565b5f604051808303815f865af19150503d805f8114611262576040519150601f19603f3d011682016040523d82523d5f602084013e611267565b606091505b50509050806112a5576040517fd229d4ee00000000000000000000000000000000000000000000000000000000815260016004820152602401610f4b565b50505050565b6040517f70a082310000000000000000000000000000000000000000000000000000000081523060048201525f9073754704bc059f8c67012fed69bc8a327a5aafb603906370a0823190602401602060405180830381865afa158015611313573d5f803e3d5ffd5b505050506040513d601f19601f820116820180604052508101906113379190611bfa565b90505f611346858385876114fc565b90505f611352866113fa565b73ffffffffffffffffffffffffffffffffffffffff16826040516113769190611cfa565b5f604051808303815f865af19150503d805f81146113af576040519150601f19603f3d011682016040523d82523d5f602084013e6113b4565b606091505b50509050806113f2576040517fd229d4ee00000000000000000000000000000000000000000000000000000000815260026004820152602401610f4b565b505050505050565b5f8082600381111561140e5761140e611c9c565b0361142e575073fe31f71c1b106eac32f1a19239c9a9a72ddfb900919050565b600182600381111561144257611442611c9c565b0361146257507321114915ac6d5a2e156931e20b20b038ded0be7c919050565b600282600381111561147657611476611c9c565b03611496575073fe951b693a2fe54be5148614b109e316b567632f919050565b60038260038111156114aa576114aa611c9c565b036114ca57507318556da13313f3532c54711497a8fedac273220e919050565b6040517f466d7fef00000000000000000000000000000000000000000000000000000000815260040160405180910390fd5b60605f85600381111561151157611511611c9c565b148061152e5750600285600381111561152c5761152c611c9c565b145b156115f557506040805173754704bc059f8c67012fed69bc8a327a5aafb6036024820152733bd359c1119da7da1d913d1c4d2b7c461115433a604482015262ffffff8316606482015230608482015260a4810185905260c481018490525f60e480830191909152825180830390910181526101049091019091526020810180517bffffffffffffffffffffffffffffffffffffffffffffffffffffffff167f04e45aaf00000000000000000000000000000000000000000000000000000000179052611a21565b600185600381111561160957611609611c9c565b036117da576040805173754704bc059f8c67012fed69bc8a327a5aafb6036024820152733bd359c1119da7da1d913d1c4d2b7c461115433a604482015262ffffff8416606482015230608482015260a4810186905260c481018590525f60e4808301829052835180840390910181526101049092018352602080830180517bffffffffffffffffffffffffffffffffffffffffffffffffffffffff167f04e45aaf000000000000000000000000000000000000000000000000000000001790528351600180825281860190955292939192919082015b60608152602001906001900390816116df57905050905081815f8151811061170957611709611d15565b60209081029190910101527f5ae401dc000000000000000000000000000000000000000000000000000000006117414261012c611c83565b82604051602401611753929190611d42565b604080517fffffffffffffffffffffffffffffffffffffffffffffffffffffffffffffffe08184030181529190526020810180517bffffffffffffffffffffffffffffffffffffffffffffffffffffffff167fffffffff00000000000000000000000000000000000000000000000000000000909316929092179091529250611a21915050565b60038560038111156117ee576117ee611c9c565b036114ca576040805160018082528183019092525f91602080830190803683370190505090508262ffffff16815f8151811061182c5761182c611d15565b60209081029190910101526040805160018082528183019092525f918160200160208202803683370190505090506003815f8151811061186e5761186e611d15565b60ff929092166020928302919091018201526040805160028082526060820183525f93919290918301908036833701905050905073754704bc059f8c67012fed69bc8a327a5aafb603815f815181106118c9576118c9611d15565b602002602001019073ffffffffffffffffffffffffffffffffffffffff16908173ffffffffffffffffffffffffffffffffffffffff1681525050733bd359c1119da7da1d913d1c4d2b7c461115433a8160018151811061192b5761192b611d15565b73ffffffffffffffffffffffffffffffffffffffff909216602092830291909101909101527f4b126ad4000000000000000000000000000000000000000000000000000000008787858585306119834261012c611c83565b6040516024016119999796959493929190611e80565b604080517fffffffffffffffffffffffffffffffffffffffffffffffffffffffffffffffe08184030181529190526020810180517bffffffffffffffffffffffffffffffffffffffffffffffffffffffff167fffffffff00000000000000000000000000000000000000000000000000000000909316929092179091529350611a2192505050565b949350505050565b803573ffffffffffffffffffffffffffffffffffffffff81168114611a4c575f80fd5b919050565b5f8060408385031215611a62575f80fd5b611a6b83611a29565b946020939093013593505050565b5f60208284031215611a89575f80fd5b611a9282611a29565b9392505050565b803560048110611a4c575f80fd5b5f8083601f840112611ab7575f80fd5b50813567ffffffffffffffff811115611ace575f80fd5b602083019150836020828501011115611ae5575f80fd5b9250929050565b803562ffffff81168114611a4c575f80fd5b5f805f805f805f60c0888a031215611b14575f80fd5b611b1d88611a99565b9650602088013567ffffffffffffffff811115611b38575f80fd5b611b448a828b01611aa7565b9097509550611b57905060408901611a99565b9350611b6560608901611aec565b92506080880135915060a0880135905092959891949750929550565b5f805f805f8060a08789031215611b96575f80fd5b611b9f87611a99565b9550602087013567ffffffffffffffff811115611bba575f80fd5b611bc689828a01611aa7565b9096509450611bd9905060408801611a99565b9250611be760608801611aec565b9150608087013590509295509295509295565b5f60208284031215611c0a575f80fd5b5051919050565b5f60208284031215611c21575f80fd5b81518015158114611a92575f80fd5b7f4e487b71000000000000000000000000000000000000000000000000000000005f52601160045260245ffd5b8181035f831280158383131683831282161715611c7c57611c7c611c30565b5092915050565b80820180821115611c9657611c96611c30565b92915050565b7f4e487b71000000000000000000000000000000000000000000000000000000005f52602160045260245ffd5b818382375f9101908152919050565b5f5b83811015611cf2578181015183820152602001611cda565b50505f910152565b5f8251611d0b818460208701611cd8565b9190910192915050565b7f4e487b71000000000000000000000000000000000000000000000000000000005f52603260045260245ffd5b5f60408201848352602060408185015281855180845260608601915060608160051b87010193508287015f5b82811015611df0577fffffffffffffffffffffffffffffffffffffffffffffffffffffffffffffffa088870301845281518051808852611db381888a01898501611cd8565b601f017fffffffffffffffffffffffffffffffffffffffffffffffffffffffffffffffe01696909601850195509284019290840190600101611d6e565b509398975050505050505050565b5f815180845260208085019450602084015f5b83811015611e3057815160ff1687529582019590820190600101611e11565b509495945050505050565b5f815180845260208085019450602084015f5b83811015611e3057815173ffffffffffffffffffffffffffffffffffffffff1687529582019590820190600101611e4e565b5f60e08201898352602089602085015260e060408501528189518084526101008601915060208b0193505f5b81811015611ec857845183529383019391830191600101611eac565b50508481036060860152611edc818a611dfe565b925050508281036080840152611ef28187611e3b565b915050611f1760a083018573ffffffffffffffffffffffffffffffffffffffff169052565b8260c08301529897505050505050505056fea2646970667358221220b40ed1224fc5299400bf0ae3a5532e08d0f8cc9dba4e283a871e1d8057365d4e64736f6c63430008180033","linkReferences":{}},"methodIdentifiers":{"LFJ_ROUTER()":"3d5a49ee","MONDAY_ROUTER()":"23b5d76d","PANCAKE_ROUTER()":"e08836dd","UNISWAP_ROUTER()":"d8264920","USDC()":"89a30271","WMON()":"f1435d29","executeArb(uint8,bytes,uint8,uint24,uint256,uint256)":"d00288ac","executeArbUnchecked(uint8,bytes,uint8,uint24,uint256)":"e19e8b74","getBalances()":"00113e08","owner()":"8da5cb5b","setupApprovals()":"8a988a47","withdrawAllToken(address)":"ae4dd0fc","withdrawToken(address,uint256)":"9e281a98"},"id":1}