{"abi":[{"type":"constructor","inputs":[],"stateMutability":"nonpayable"},{"type":"receive","stateMutability":"payable"},{"type":"function","name":"LFJ_ROUTER","inputs":[],"outputs":[{"name":"","type":"address","internalType":"address"}],"stateMutability":"view"},{"type":"function","name":"MONDAY_ROUTER","inputs":[],"outputs":[{"name":"","type":"address","internalType":"address"}],"stateMutability":"view"},{"type":"function","name":"PANCAKE_ROUTER","inputs":[],"outputs":[{"name":"","type":"address","internalType":"address"}],"stateMutability":"view"},{"type":"function","name":"UNISWAP_ROUTER","inputs":[],"outputs":[{"name":"","type":"address","internalType":"address"}],"stateMutability":"view"},{"type":"function","name":"USDC","inputs":[],"outputs":[{"name":"","type":"address","internalType":"address"}],"stateMutability":"view"},{"type":"function","name":"WMON","inputs":[],"outputs":[{"name":"","type":"address","internalType":"address"}],"stateMutability":"view"},{"type":"function","name":"executeArb","inputs":[{"name":"sellRouter","type":"uint8","internalType":"enum MonadAtomicArb.Router"},{"name":"sellRouterData","type":"bytes","internalType":"bytes"},{"name":"buyRouter","type":"uint8","internalType":"enum MonadAtomicArb.Router"},{"name":"buyPoolFee","type":"uint24","internalType":"uint24"},{"name":"minWmonOut","type":"uint256","internalType":"uint256"},{"name":"minProfit","type":"uint256","internalType":"uint256"}],"outputs":[{"name":"profit","type":"int256","internalType":"int256"}],"stateMutability":"nonpayable"},{"type":"function","name":"executeArbUnchecked","inputs":[{"name":"sellRouter","type":"uint8","internalType":"enum MonadAtomicArb.Router"},{"name":"sellRouterData","type":"bytes","internalType":"bytes"},{"name":"buyRouter","type":"uint8","internalType":"enum MonadAtomicArb.Router"},{"name":"buyPoolFee","type":"uint24","internalType":"uint24"},{"name":"minWmonOut","type":"uint256","internalType":"uint256"}],"outputs":[{"name":"profit","type":"int256","internalType":"int256"}],"stateMutability":"nonpayable"},{"type":"function","name":"getBalances","inputs":[],"outputs":[{"name":"wmon","type":"uint256","internalType":"uint256"},{"name":"usdc","type":"uint256","internalType":"uint256"}],"stateMutability":"view"},{"type":"function","name":"owner","inputs":[],"outputs":[{"name":"","type":"address","internalType":"address"}],"stateMutability":"view"},{"type":"function","name":"setupApprovals","inputs":[],"outputs":[],"stateMutability":"nonpayable"},{"type":"function","name":"withdrawAllToken","inputs":[{"name":"token","type":"address","internalType":"address"}],"outputs":[],"stateMutability":"nonpayable"},{"type":"function","name":"withdrawToken","inputs":[{"name":"token","type":"address","internalType":"address"},{"name":"amount","type":"uint256","internalType":"uint256"}],"outputs":[],"stateMutability":"nonpayable"},{"type":"event","name":"ArbExecuted","inputs":[{"name":"sellRouter","type":"uint8","indexed":true,"internalType":"uint8"},{"name":"buyRouter","type":"uint8","indexed":true,"internalType":"uint8"},{"name":"wmonIn","type":"uint256","indexed":false,"internalType":"uint256"},{"name":"wmonOut","type":"uint256","indexed":false,"internalType":"uint256"},{"name":"profit","type":"int256","indexed":false,"internalType":"int256"}],"anonymous":false},{"type":"error","name":"InvalidRouter","inputs":[]},{"type":"error","name":"OnlyOwner","inputs":[]},{"type":"error","name":"SwapFailed","inputs":[{"name":"swapIndex","type":"uint8","internalType":"uint8"}]},{"type":"error","name":"Unprofitable","inputs":[{"name":"wmonBefore","type":"uint256","internalType":"uint256"},{"name":"wmonAfter","type":"uint256","internalType":"uint256"}]}],"bytecode":{"object":"0x60a060405234801561000f575f80fd5b50336080526080516120a561005d5f395f81816101ca0152818161042401528181610ac501528181610b5901528181610bf001528181610d1201528181610d6d0152610fe901526120a55ff3fe6080604052600436106100d0575f3560e01c80639e281a981161007c578063d826492011610057578063d826492014610257578063e08836dd1461027e578063e19e8b74146102a5578063f1435d29146102c4575f80fd5b80639e281a98146101ec578063ae4dd0fc1461020b578063d00288ac1461022a575f80fd5b806389a30271116100ac57806389a302711461017c5780638a988a47146101a35780638da5cb5b146101b9575f80fd5b8062113e08146100db57806323b5d76d146101095780633d5a49ee14610155575f80fd5b366100d757005b5f80fd5b3480156100e6575f80fd5b506100ef6102eb565b604080519283526020830191909152015b60405180910390f35b348015610114575f80fd5b5061013073fe951b693a2fe54be5148614b109e316b567632f81565b60405173ffffffffffffffffffffffffffffffffffffffff9091168152602001610100565b348015610160575f80fd5b506101307318556da13313f3532c54711497a8fedac273220e81565b348015610187575f80fd5b5061013073754704bc059f8c67012fed69bc8a327a5aafb60381565b3480156101ae575f80fd5b506101b761040c565b005b3480156101c4575f80fd5b506101307f000000000000000000000000000000000000000000000000000000000000000081565b3480156101f7575f80fd5b506101b7610206366004611b62565b610aad565b348015610216575f80fd5b506101b7610225366004611b8a565b610bd8565b348015610235575f80fd5b50610249610244366004611c0f565b610d54565b604051908152602001610100565b348015610262575f80fd5b5061013073fe31f71c1b106eac32f1a19239c9a9a72ddfb90081565b348015610289575f80fd5b506101307321114915ac6d5a2e156931e20b20b038ded0be7c81565b3480156102b0575f80fd5b506102496102bf366004611c92565b610fd0565b3480156102cf575f80fd5b50610130733bd359c1119da7da1d913d1c4d2b7c461115433a81565b6040517f70a082310000000000000000000000000000000000000000000000000000000081523060048201525f908190733bd359c1119da7da1d913d1c4d2b7c461115433a906370a0823190602401602060405180830381865afa158015610355573d5f803e3d5ffd5b505050506040513d601f19601f820116820180604052508101906103799190611d0b565b6040517f70a0823100000000000000000000000000000000000000000000000000000000815230600482015290925073754704bc059f8c67012fed69bc8a327a5aafb603906370a0823190602401602060405180830381865afa1580156103e2573d5f803e3d5ffd5b505050506040513d601f19601f820116820180604052508101906104069190611d0b565b90509091565b3373ffffffffffffffffffffffffffffffffffffffff7f0000000000000000000000000000000000000000000000000000000000000000161461047b576040517f5fc483c500000000000000000000000000000000000000000000000000000000815260040160405180910390fd5b6040517f095ea7b300000000000000000000000000000000000000000000000000000000815273fe31f71c1b106eac32f1a19239c9a9a72ddfb90060048201527fffffffffffffffffffffffffffffffffffffffffffffffffffffffffffffffff6024820152733bd359c1119da7da1d913d1c4d2b7c461115433a9063095ea7b3906044016020604051808303815f875af115801561051c573d5f803e3d5ffd5b505050506040513d601f19601f820116820180604052508101906105409190611d22565b506040517f095ea7b30000000000000000000000000000000000000000000000000000000081527321114915ac6d5a2e156931e20b20b038ded0be7c60048201527fffffffffffffffffffffffffffffffffffffffffffffffffffffffffffffffff6024820152733bd359c1119da7da1d913d1c4d2b7c461115433a9063095ea7b3906044016020604051808303815f875af11580156105e2573d5f803e3d5ffd5b505050506040513d601f19601f820116820180604052508101906106069190611d22565b506040517f095ea7b300000000000000000000000000000000000000000000000000000000815273fe951b693a2fe54be5148614b109e316b567632f60048201527fffffffffffffffffffffffffffffffffffffffffffffffffffffffffffffffff6024820152733bd359c1119da7da1d913d1c4d2b7c461115433a9063095ea7b3906044016020604051808303815f875af11580156106a8573d5f803e3d5ffd5b505050506040513d601f19601f820116820180604052508101906106cc9190611d22565b506040517f095ea7b30000000000000000000000000000000000000000000000000000000081527318556da13313f3532c54711497a8fedac273220e60048201527fffffffffffffffffffffffffffffffffffffffffffffffffffffffffffffffff6024820152733bd359c1119da7da1d913d1c4d2b7c461115433a9063095ea7b3906044016020604051808303815f875af115801561076e573d5f803e3d5ffd5b505050506040513d601f19601f820116820180604052508101906107929190611d22565b506040517f095ea7b300000000000000000000000000000000000000000000000000000000815273fe31f71c1b106eac32f1a19239c9a9a72ddfb90060048201527fffffffffffffffffffffffffffffffffffffffffffffffffffffffffffffffff602482015273754704bc059f8c67012fed69bc8a327a5aafb6039063095ea7b3906044016020604051808303815f875af1158015610834573d5f803e3d5ffd5b505050506040513d601f19601f820116820180604052508101906108589190611d22565b506040517f095ea7b30000000000000000000000000000000000000000000000000000000081527321114915ac6d5a2e156931e20b20b038ded0be7c60048201527fffffffffffffffffffffffffffffffffffffffffffffffffffffffffffffffff602482015273754704bc059f8c67012fed69bc8a327a5aafb6039063095ea7b3906044016020604051808303815f875af11580156108fa573d5f803e3d5ffd5b505050506040513d601f19601f8201168201806040525081019061091e9190611d22565b506040517f095ea7b300000000000000000000000000000000000000000000000000000000815273fe951b693a2fe54be5148614b109e316b567632f60048201527fffffffffffffffffffffffffffffffffffffffffffffffffffffffffffffffff602482015273754704bc059f8c67012fed69bc8a327a5aafb6039063095ea7b3906044016020604051808303815f875af11580156109c0573d5f803e3d5ffd5b505050506040513d601f19601f820116820180604052508101906109e49190611d22565b506040517f095ea7b30000000000000000000000000000000000000000000000000000000081527318556da13313f3532c54711497a8fedac273220e60048201527fffffffffffffffffffffffffffffffffffffffffffffffffffffffffffffffff602482015273754704bc059f8c67012fed69bc8a327a5aafb6039063095ea7b3906044016020604051808303815f875af1158015610a86573d5f803e3d5ffd5b505050506040513d601f19601f82011682018060405250810190610aaa9190611d22565b50565b3373ffffffffffffffffffffffffffffffffffffffff7f00000000000000000000000000000000000000000000000000000000000000001614610b1c576040517f5fc483c500000000000000000000000000000000000000000000000000000000815260040160405180910390fd5b6040517fa9059cbb00000000000000000000000000000000000000000000000000000000815273ffffffffffffffffffffffffffffffffffffffff7f0000000000000000000000000000000000000000000000000000000000000000811660048301526024820183905283169063a9059cbb906044015b6020604051808303815f875af1158015610baf573d5f803e3d5ffd5b505050506040513d601f19601f82011682018060405250810190610bd39190611d22565b505050565b3373ffffffffffffffffffffffffffffffffffffffff7f00000000000000000000000000000000000000000000000000000000000000001614610c47576040517f5fc483c500000000000000000000000000000000000000000000000000000000815260040160405180910390fd5b6040517f70a082310000000000000000000000000000000000000000000000000000000081523060048201525f9073ffffffffffffffffffffffffffffffffffffffff8316906370a0823190602401602060405180830381865afa158015610cb1573d5f803e3d5ffd5b505050506040513d601f19601f82011682018060405250810190610cd59190611d0b565b6040517fa9059cbb00000000000000000000000000000000000000000000000000000000815273ffffffffffffffffffffffffffffffffffffffff7f000000000000000000000000000000000000000000000000000000000000000081166004830152602482018390529192509083169063a9059cbb90604401610b93565b5f3373ffffffffffffffffffffffffffffffffffffffff7f00000000000000000000000000000000000000000000000000000000000000001614610dc4576040517f5fc483c500000000000000000000000000000000000000000000000000000000815260040160405180910390fd5b6040517f70a082310000000000000000000000000000000000000000000000000000000081523060048201525f90733bd359c1119da7da1d913d1c4d2b7c461115433a906370a0823190602401602060405180830381865afa158015610e2c573d5f803e3d5ffd5b505050506040513d601f19601f82011682018060405250810190610e509190611d0b565b9050610e5d8989896111f9565b610e688686866112ab565b6040517f70a082310000000000000000000000000000000000000000000000000000000081523060048201525f90733bd359c1119da7da1d913d1c4d2b7c461115433a906370a0823190602401602060405180830381865afa158015610ed0573d5f803e3d5ffd5b505050506040513d601f19601f82011682018060405250810190610ef49190611d0b565b9050610f008282611d6e565b9250610f0c8483611d94565b811015610f54576040517f4482de3e00000000000000000000000000000000000000000000000000000000815260048101839052602481018290526044015b60405180910390fd5b866003811115610f6657610f66611dad565b60ff168a6003811115610f7b57610f7b611dad565b604080518581526020810185905290810186905260ff91909116907ff90525f10ae3738475f9bb823e7315be918cc41406be65f8ef776738956c7aef9060600160405180910390a35050979650505050505050565b5f3373ffffffffffffffffffffffffffffffffffffffff7f00000000000000000000000000000000000000000000000000000000000000001614611040576040517f5fc483c500000000000000000000000000000000000000000000000000000000815260040160405180910390fd5b6040517f70a082310000000000000000000000000000000000000000000000000000000081523060048201525f90733bd359c1119da7da1d913d1c4d2b7c461115433a906370a0823190602401602060405180830381865afa1580156110a8573d5f803e3d5ffd5b505050506040513d601f19601f820116820180604052508101906110cc9190611d0b565b90506110d98888886111f9565b6110e48585856112ab565b6040517f70a082310000000000000000000000000000000000000000000000000000000081523060048201525f90733bd359c1119da7da1d913d1c4d2b7c461115433a906370a0823190602401602060405180830381865afa15801561114c573d5f803e3d5ffd5b505050506040513d601f19601f820116820180604052508101906111709190611d0b565b905061117c8282611d6e565b925085600381111561119057611190611dad565b60ff168960038111156111a5576111a5611dad565b604080518581526020810185905290810186905260ff91909116907ff90525f10ae3738475f9bb823e7315be918cc41406be65f8ef776738956c7aef9060600160405180910390a350509695505050505050565b5f611203846113fa565b73ffffffffffffffffffffffffffffffffffffffff168383604051611229929190611dda565b5f604051808303815f865af19150503d805f8114611262576040519150601f19603f3d011682016040523d82523d5f602084013e611267565b606091505b50509050806112a5576040517fd229d4ee00000000000000000000000000000000000000000000000000000000815260016004820152602401610f4b565b50505050565b6040517f70a082310000000000000000000000000000000000000000000000000000000081523060048201525f9073754704bc059f8c67012fed69bc8a327a5aafb603906370a0823190602401602060405180830381865afa158015611313573d5f803e3d5ffd5b505050506040513d601f19601f820116820180604052508101906113379190611d0b565b90505f611346858385876114fc565b90505f611352866113fa565b73ffffffffffffffffffffffffffffffffffffffff16826040516113769190611e0b565b5f604051808303815f865af19150503d805f81146113af576040519150601f19603f3d011682016040523d82523d5f602084013e6113b4565b606091505b50509050806113f2576040517fd229d4ee00000000000000000000000000000000000000000000000000000000815260026004820152602401610f4b565b505050505050565b5f8082600381111561140e5761140e611dad565b0361142e575073fe31f71c1b106eac32f1a19239c9a9a72ddfb900919050565b600182600381111561144257611442611dad565b0361146257507321114915ac6d5a2e156931e20b20b038ded0be7c919050565b600282600381111561147657611476611dad565b03611496575073fe951b693a2fe54be5148614b109e316b567632f919050565b60038260038111156114aa576114aa611dad565b036114ca57507318556da13313f3532c54711497a8fedac273220e919050565b6040517f466d7fef00000000000000000000000000000000000000000000000000000000815260040160405180910390fd5b60605f85600381111561151157611511611dad565b0361161d5760405173754704bc059f8c67012fed69bc8a327a5aafb6036024820152733bd359c1119da7da1d913d1c4d2b7c461115433a604482015262ffffff8316606482015230608482015260a4810185905260c481018490525f60e48201527f04e45aaf0000000000000000000000000000000000000000000000000000000090610104015b604080517fffffffffffffffffffffffffffffffffffffffffffffffffffffffffffffffe08184030181529190526020810180517bffffffffffffffffffffffffffffffffffffffffffffffffffffffff167fffffffff00000000000000000000000000000000000000000000000000000000909316929092179091529050611b32565b600285600381111561163157611631611dad565b036116f2577f414bf3890000000000000000000000000000000000000000000000000000000073754704bc059f8c67012fed69bc8a327a5aafb603733bd359c1119da7da1d913d1c4d2b7c461115433a843061168f4261012c611d94565b60405173ffffffffffffffffffffffffffffffffffffffff9586166024820152938516604485015262ffffff909216606484015292909216608482015260a481019190915260c4810186905260e481018590525f61010482015261012401611599565b600185600381111561170657611706611dad565b036118d7576040805173754704bc059f8c67012fed69bc8a327a5aafb6036024820152733bd359c1119da7da1d913d1c4d2b7c461115433a604482015262ffffff8416606482015230608482015260a4810186905260c481018590525f60e4808301829052835180840390910181526101049092018352602080830180517bffffffffffffffffffffffffffffffffffffffffffffffffffffffff167f04e45aaf000000000000000000000000000000000000000000000000000000001790528351600180825281860190955292939192919082015b60608152602001906001900390816117dc57905050905081815f8151811061180657611806611e26565b60209081029190910101527f5ae401dc0000000000000000000000000000000000000000000000000000000061183e4261012c611d94565b82604051602401611850929190611e53565b604080517fffffffffffffffffffffffffffffffffffffffffffffffffffffffffffffffe08184030181529190526020810180517bffffffffffffffffffffffffffffffffffffffffffffffffffffffff167fffffffff00000000000000000000000000000000000000000000000000000000909316929092179091529250611b32915050565b60038560038111156118eb576118eb611dad565b036114ca576040805160018082528183019092525f91602080830190803683370190505090508262ffffff16815f8151811061192957611929611e26565b60209081029190910101526040805160018082528183019092525f918160200160208202803683370190505090506003815f8151811061196b5761196b611e26565b60ff929092166020928302919091018201526040805160028082526060820183525f93919290918301908036833701905050905073754704bc059f8c67012fed69bc8a327a5aafb603815f815181106119c6576119c6611e26565b602002602001019073ffffffffffffffffffffffffffffffffffffffff16908173ffffffffffffffffffffffffffffffffffffffff1681525050733bd359c1119da7da1d913d1c4d2b7c461115433a81600181518110611a2857611a28611e26565b73ffffffffffffffffffffffffffffffffffffffff9092166020928302919091018201526040805160608101825285815291820184905281018290527f4b126ad40000000000000000000000000000000000000000000000000000000088888330611a954261012c611d94565b604051602401611aa9959493929190611f5f565b604080517fffffffffffffffffffffffffffffffffffffffffffffffffffffffffffffffe08184030181529190526020810180517bffffffffffffffffffffffffffffffffffffffffffffffffffffffff167fffffffff00000000000000000000000000000000000000000000000000000000909316929092179091529450611b329350505050565b949350505050565b803573ffffffffffffffffffffffffffffffffffffffff81168114611b5d575f80fd5b919050565b5f8060408385031215611b73575f80fd5b611b7c83611b3a565b946020939093013593505050565b5f60208284031215611b9a575f80fd5b611ba382611b3a565b9392505050565b803560048110611b5d575f80fd5b5f8083601f840112611bc8575f80fd5b50813567ffffffffffffffff811115611bdf575f80fd5b602083019150836020828501011115611bf6575f80fd5b9250929050565b803562ffffff81168114611b5d575f80fd5b5f805f805f805f60c0888a031215611c25575f80fd5b611c2e88611baa565b9650602088013567ffffffffffffffff811115611c49575f80fd5b611c558a828b01611bb8565b9097509550611c68905060408901611baa565b9350611c7660608901611bfd565b92506080880135915060a0880135905092959891949750929550565b5f805f805f8060a08789031215611ca7575f80fd5b611cb087611baa565b9550602087013567ffffffffffffffff811115611ccb575f80fd5b611cd789828a01611bb8565b9096509450611cea905060408801611baa565b9250611cf860608801611bfd565b9150608087013590509295509295509295565b5f60208284031215611d1b575f80fd5b5051919050565b5f60208284031215611d32575f80fd5b81518015158114611ba3575f80fd5b7f4e487b71000000000000000000000000000000000000000000000000000000005f52601160045260245ffd5b8181035f831280158383131683831282161715611d8d57611d8d611d41565b5092915050565b80820180821115611da757611da7611d41565b92915050565b7f4e487b71000000000000000000000000000000000000000000000000000000005f52602160045260245ffd5b818382375f9101908152919050565b5f5b83811015611e03578181015183820152602001611deb565b50505f910152565b5f8251611e1c818460208701611de9565b9190910192915050565b7f4e487b71000000000000000000000000000000000000000000000000000000005f52603260045260245ffd5b5f60408201848352602060408185015281855180845260608601915060608160051b87010193508287015f5b82811015611f01577fffffffffffffffffffffffffffffffffffffffffffffffffffffffffffffffa088870301845281518051808852611ec481888a01898501611de9565b601f017fffffffffffffffffffffffffffffffffffffffffffffffffffffffffffffffe01696909601850195509284019290840190600101611e7f565b509398975050505050505050565b5f815180845260208085019450602084015f5b83811015611f5457815173ffffffffffffffffffffffffffffffffffffffff1687529582019590820190600101611f22565b509495945050505050565b8581525f6020868184015260a0604084015261010083018651606060a08601528181518084526101208701915084830193505f92505b80831015611fb55783518252928401926001929092019190840190611f95565b50838901517fffffffffffffffffffffffffffffffffffffffffffffffffffffffffffffff60878303810160c08901528151808452918601945092505f918501905b8083101561201a57845160ff168252938501936001929092019190850190611ff7565b5060408a01519450828782030160e08801526120368186611f0f565b9550505050505061205f606083018573ffffffffffffffffffffffffffffffffffffffff169052565b826080830152969550505050505056fea26469706673582212202ed1e99d9d0c3190556f2fe81bdbb42a1f4e5882b9275faefd11526fb52386dd64736f6c63430008180033","linkReferences":{}},"methodIdentifiers":{"LFJ_ROUTER()":"3d5a49ee","MONDAY_ROUTER()":"23b5d76d","PANCAKE_ROUTER()":"e08836dd","UNISWAP_ROUTER()":"d8264920","USDC()":"89a30271","WMON()":"f1435d29","executeArb(uint8,bytes,uint8,uint24,uint256,uint256)":"d00288ac","executeArbUnchecked(uint8,bytes,uint8,uint24,uint256)":"e19e8b74","getBalances()":"00113e08","owner()":"8da5cb5b","setupApprovals()":"8a988a47","withdrawAllToken(address)":"ae4dd0fc","withdrawToken(address,uint256)":"9e281a98"},"id":1}