{"abi":[{"type":"constructor","inputs":[],"stateMutability":"nonpayable"},{"type":"receive","stateMutability":"payable"},{"type":"function","name":"LFJ_ROUTER","inputs":[],"outputs":[{"name":"","type":"address","internalType":"address"}],"stateMutability":"view"},{"type":"function","name":"MONDAY_ROUTER","inputs":[],"outputs":[{"name":"","type":"address","internalType":"address"}],"stateMutability":"view"},{"type":"function","name":"PANCAKE_ROUTER","inputs":[],"outputs":[{"name":"","type":"address","internalType":"address"}],"stateMutability":"view"},{"type":"function","name":"UNISWAP_ROUTER","inputs":[],"outputs":[{"name":"","type":"address","internalType":"address"}],"stateMutability":"view"},{"type":"function","name":"USDC","inputs":[],"outputs":[{"name":"","type":"address","internalType":"address"}],"stateMutability":"view"},{"type":"function","name":"WMON","inputs":[],"outputs":[{"name":"","type":"address","internalType":"address"}],"stateMutability":"view"},{"type":"function","name":"executeArb","inputs":[{"name":"sellRouter","type":"uint8","internalType":"enum MonadAtomicArb.Router"},{"name":"sellRouterData","type":"bytes","internalType":"bytes"},{"name":"buyRouter","type":"uint8","internalType":"enum MonadAtomicArb.Router"},{"name":"buyRouterData","type":"bytes","internalType":"bytes"},{"name":"minProfit","type":"uint256","internalType":"uint256"}],"outputs":[{"name":"profit","type":"int256","internalType":"int256"}],"stateMutability":"nonpayable"},{"type":"function","name":"executeArbUnchecked","inputs":[{"name":"sellRouter","type":"uint8","internalType":"enum MonadAtomicArb.Router"},{"name":"sellRouterData","type":"bytes","internalType":"bytes"},{"name":"buyRouter","type":"uint8","internalType":"enum MonadAtomicArb.Router"},{"name":"buyRouterData","type":"bytes","internalType":"bytes"}],"outputs":[{"name":"profit","type":"int256","internalType":"int256"}],"stateMutability":"nonpayable"},{"type":"function","name":"getBalances","inputs":[],"outputs":[{"name":"wmon","type":"uint256","internalType":"uint256"},{"name":"usdc","type":"uint256","internalType":"uint256"}],"stateMutability":"view"},{"type":"function","name":"owner","inputs":[],"outputs":[{"name":"","type":"address","internalType":"address"}],"stateMutability":"view"},{"type":"function","name":"setupApprovals","inputs":[],"outputs":[],"stateMutability":"nonpayable"},{"type":"function","name":"withdrawAllToken","inputs":[{"name":"token","type":"address","internalType":"address"}],"outputs":[],"stateMutability":"nonpayable"},{"type":"function","name":"withdrawToken","inputs":[{"name":"token","type":"address","internalType":"address"},{"name":"amount","type":"uint256","internalType":"uint256"}],"outputs":[],"stateMutability":"nonpayable"},{"type":"event","name":"ArbExecuted","inputs":[{"name":"sellRouter","type":"uint8","indexed":true,"internalType":"uint8"},{"name":"buyRouter","type":"uint8","indexed":true,"internalType":"uint8"},{"name":"wmonIn","type":"uint256","indexed":false,"internalType":"uint256"},{"name":"wmonOut","type":"uint256","indexed":false,"internalType":"uint256"},{"name":"profit","type":"int256","indexed":false,"internalType":"int256"}],"anonymous":false},{"type":"error","name":"InvalidRouter","inputs":[]},{"type":"error","name":"OnlyOwner","inputs":[]},{"type":"error","name":"SwapFailed","inputs":[{"name":"swapIndex","type":"uint8","internalType":"uint8"}]},{"type":"error","name":"Unprofitable","inputs":[{"name":"wmonBefore","type":"uint256","internalType":"uint256"},{"name":"wmonAfter","type":"uint256","internalType":"uint256"}]}],"bytecode":{"object":"0x60a060405234801561000f575f80fd5b503360805260805161189261005d5f395f81816101f701528181610425015281816107ee01528181610e8f01528181610f2301528181610fba015281816110dc015261113701526118925ff3fe6080604052600436106100d0575f3560e01c80638da5cb5b1161007c578063b2f823f111610057578063b2f823f114610257578063d826492014610276578063e08836dd1461029d578063f1435d29146102c4575f80fd5b80638da5cb5b146101e65780639e281a9814610219578063ae4dd0fc14610238575f80fd5b80633d5a49ee116100ac5780633d5a49ee1461018257806389a30271146101a95780638a988a47146101d0575f80fd5b8062113e08146100db57806323b5d76d1461010957806337dc221814610155575f80fd5b366100d757005b5f80fd5b3480156100e6575f80fd5b506100ef6102eb565b604080519283526020830191909152015b60405180910390f35b348015610114575f80fd5b5061013073fe951b693a2fe54be5148614b109e316b567632f81565b60405173ffffffffffffffffffffffffffffffffffffffff9091168152602001610100565b348015610160575f80fd5b5061017461016f3660046115ef565b61040c565b604051908152602001610100565b34801561018d575f80fd5b506101307318556da13313f3532c54711497a8fedac273220e81565b3480156101b4575f80fd5b5061013073754704bc059f8c67012fed69bc8a327a5aafb60381565b3480156101db575f80fd5b506101e46107d6565b005b3480156101f1575f80fd5b506101307f000000000000000000000000000000000000000000000000000000000000000081565b348015610224575f80fd5b506101e46102333660046116a8565b610e77565b348015610243575f80fd5b506101e46102523660046116d0565b610fa2565b348015610262575f80fd5b506101746102713660046116f0565b61111e565b348015610281575f80fd5b5061013073fe31f71c1b106eac32f1a19239c9a9a72ddfb90081565b3480156102a8575f80fd5b506101307321114915ac6d5a2e156931e20b20b038ded0be7c81565b3480156102cf575f80fd5b50610130733bd359c1119da7da1d913d1c4d2b7c461115433a81565b6040517f70a082310000000000000000000000000000000000000000000000000000000081523060048201525f908190733bd359c1119da7da1d913d1c4d2b7c461115433a906370a0823190602401602060405180830381865afa158015610355573d5f803e3d5ffd5b505050506040513d601f19601f82011682018060405250810190610379919061177e565b6040517f70a0823100000000000000000000000000000000000000000000000000000000815230600482015290925073754704bc059f8c67012fed69bc8a327a5aafb603906370a0823190602401602060405180830381865afa1580156103e2573d5f803e3d5ffd5b505050506040513d601f19601f82011682018060405250810190610406919061177e565b90509091565b5f3373ffffffffffffffffffffffffffffffffffffffff7f0000000000000000000000000000000000000000000000000000000000000000161461047c576040517f5fc483c500000000000000000000000000000000000000000000000000000000815260040160405180910390fd5b6040517f70a082310000000000000000000000000000000000000000000000000000000081523060048201525f90733bd359c1119da7da1d913d1c4d2b7c461115433a906370a0823190602401602060405180830381865afa1580156104e4573d5f803e3d5ffd5b505050506040513d601f19601f82011682018060405250810190610508919061177e565b90505f6105148a611495565b90505f8173ffffffffffffffffffffffffffffffffffffffff168a8a60405161053e929190611795565b5f604051808303815f865af19150503d805f8114610577576040519150601f19603f3d011682016040523d82523d5f602084013e61057c565b606091505b50509050806105bf576040517fd229d4ee000000000000000000000000000000000000000000000000000000008152600160048201526024015b60405180910390fd5b5f6105c989611495565b90505f8173ffffffffffffffffffffffffffffffffffffffff1689896040516105f3929190611795565b5f604051808303815f865af19150503d805f811461062c576040519150601f19603f3d011682016040523d82523d5f602084013e610631565b606091505b505090508061066f576040517fd229d4ee000000000000000000000000000000000000000000000000000000008152600260048201526024016105b6565b6040517f70a082310000000000000000000000000000000000000000000000000000000081523060048201525f90733bd359c1119da7da1d913d1c4d2b7c461115433a906370a0823190602401602060405180830381865afa1580156106d7573d5f803e3d5ffd5b505050506040513d601f19601f820116820180604052508101906106fb919061177e565b905061070786826117d1565b965061071388876117f7565b811015610756576040517f4482de3e00000000000000000000000000000000000000000000000000000000815260048101879052602481018290526044016105b6565b8a600381111561076857610768611810565b60ff168e600381111561077d5761077d611810565b60408051898152602081018590529081018a905260ff91909116907ff90525f10ae3738475f9bb823e7315be918cc41406be65f8ef776738956c7aef9060600160405180910390a3505050505050979650505050505050565b3373ffffffffffffffffffffffffffffffffffffffff7f00000000000000000000000000000000000000000000000000000000000000001614610845576040517f5fc483c500000000000000000000000000000000000000000000000000000000815260040160405180910390fd5b6040517f095ea7b300000000000000000000000000000000000000000000000000000000815273fe31f71c1b106eac32f1a19239c9a9a72ddfb90060048201527fffffffffffffffffffffffffffffffffffffffffffffffffffffffffffffffff6024820152733bd359c1119da7da1d913d1c4d2b7c461115433a9063095ea7b3906044016020604051808303815f875af11580156108e6573d5f803e3d5ffd5b505050506040513d601f19601f8201168201806040525081019061090a919061183d565b506040517f095ea7b30000000000000000000000000000000000000000000000000000000081527321114915ac6d5a2e156931e20b20b038ded0be7c60048201527fffffffffffffffffffffffffffffffffffffffffffffffffffffffffffffffff6024820152733bd359c1119da7da1d913d1c4d2b7c461115433a9063095ea7b3906044016020604051808303815f875af11580156109ac573d5f803e3d5ffd5b505050506040513d601f19601f820116820180604052508101906109d0919061183d565b506040517f095ea7b300000000000000000000000000000000000000000000000000000000815273fe951b693a2fe54be5148614b109e316b567632f60048201527fffffffffffffffffffffffffffffffffffffffffffffffffffffffffffffffff6024820152733bd359c1119da7da1d913d1c4d2b7c461115433a9063095ea7b3906044016020604051808303815f875af1158015610a72573d5f803e3d5ffd5b505050506040513d601f19601f82011682018060405250810190610a96919061183d565b506040517f095ea7b30000000000000000000000000000000000000000000000000000000081527318556da13313f3532c54711497a8fedac273220e60048201527fffffffffffffffffffffffffffffffffffffffffffffffffffffffffffffffff6024820152733bd359c1119da7da1d913d1c4d2b7c461115433a9063095ea7b3906044016020604051808303815f875af1158015610b38573d5f803e3d5ffd5b505050506040513d601f19601f82011682018060405250810190610b5c919061183d565b506040517f095ea7b300000000000000000000000000000000000000000000000000000000815273fe31f71c1b106eac32f1a19239c9a9a72ddfb90060048201527fffffffffffffffffffffffffffffffffffffffffffffffffffffffffffffffff602482015273754704bc059f8c67012fed69bc8a327a5aafb6039063095ea7b3906044016020604051808303815f875af1158015610bfe573d5f803e3d5ffd5b505050506040513d601f19601f82011682018060405250810190610c22919061183d565b506040517f095ea7b30000000000000000000000000000000000000000000000000000000081527321114915ac6d5a2e156931e20b20b038ded0be7c60048201527fffffffffffffffffffffffffffffffffffffffffffffffffffffffffffffffff602482015273754704bc059f8c67012fed69bc8a327a5aafb6039063095ea7b3906044016020604051808303815f875af1158015610cc4573d5f803e3d5ffd5b505050506040513d601f19601f82011682018060405250810190610ce8919061183d565b506040517f095ea7b300000000000000000000000000000000000000000000000000000000815273fe951b693a2fe54be5148614b109e316b567632f60048201527fffffffffffffffffffffffffffffffffffffffffffffffffffffffffffffffff602482015273754704bc059f8c67012fed69bc8a327a5aafb6039063095ea7b3906044016020604051808303815f875af1158015610d8a573d5f803e3d5ffd5b505050506040513d601f19601f82011682018060405250810190610dae919061183d565b506040517f095ea7b30000000000000000000000000000000000000000000000000000000081527318556da13313f3532c54711497a8fedac273220e60048201527fffffffffffffffffffffffffffffffffffffffffffffffffffffffffffffffff602482015273754704bc059f8c67012fed69bc8a327a5aafb6039063095ea7b3906044016020604051808303815f875af1158015610e50573d5f803e3d5ffd5b505050506040513d601f19601f82011682018060405250810190610e74919061183d565b50565b3373ffffffffffffffffffffffffffffffffffffffff7f00000000000000000000000000000000000000000000000000000000000000001614610ee6576040517f5fc483c500000000000000000000000000000000000000000000000000000000815260040160405180910390fd5b6040517fa9059cbb00000000000000000000000000000000000000000000000000000000815273ffffffffffffffffffffffffffffffffffffffff7f0000000000000000000000000000000000000000000000000000000000000000811660048301526024820183905283169063a9059cbb906044015b6020604051808303815f875af1158015610f79573d5f803e3d5ffd5b505050506040513d601f19601f82011682018060405250810190610f9d919061183d565b505050565b3373ffffffffffffffffffffffffffffffffffffffff7f00000000000000000000000000000000000000000000000000000000000000001614611011576040517f5fc483c500000000000000000000000000000000000000000000000000000000815260040160405180910390fd5b6040517f70a082310000000000000000000000000000000000000000000000000000000081523060048201525f9073ffffffffffffffffffffffffffffffffffffffff8316906370a0823190602401602060405180830381865afa15801561107b573d5f803e3d5ffd5b505050506040513d601f19601f8201168201806040525081019061109f919061177e565b6040517fa9059cbb00000000000000000000000000000000000000000000000000000000815273ffffffffffffffffffffffffffffffffffffffff7f000000000000000000000000000000000000000000000000000000000000000081166004830152602482018390529192509083169063a9059cbb90604401610f5d565b5f3373ffffffffffffffffffffffffffffffffffffffff7f0000000000000000000000000000000000000000000000000000000000000000161461118e576040517f5fc483c500000000000000000000000000000000000000000000000000000000815260040160405180910390fd5b6040517f70a082310000000000000000000000000000000000000000000000000000000081523060048201525f90733bd359c1119da7da1d913d1c4d2b7c461115433a906370a0823190602401602060405180830381865afa1580156111f6573d5f803e3d5ffd5b505050506040513d601f19601f8201168201806040525081019061121a919061177e565b90505f61122689611495565b90505f8173ffffffffffffffffffffffffffffffffffffffff168989604051611250929190611795565b5f604051808303815f865af19150503d805f8114611289576040519150601f19603f3d011682016040523d82523d5f602084013e61128e565b606091505b50509050806112cc576040517fd229d4ee000000000000000000000000000000000000000000000000000000008152600160048201526024016105b6565b5f6112d688611495565b90505f8173ffffffffffffffffffffffffffffffffffffffff168888604051611300929190611795565b5f604051808303815f865af19150503d805f8114611339576040519150601f19603f3d011682016040523d82523d5f602084013e61133e565b606091505b505090508061137c576040517fd229d4ee000000000000000000000000000000000000000000000000000000008152600260048201526024016105b6565b6040517f70a082310000000000000000000000000000000000000000000000000000000081523060048201525f90733bd359c1119da7da1d913d1c4d2b7c461115433a906370a0823190602401602060405180830381865afa1580156113e4573d5f803e3d5ffd5b505050506040513d601f19601f82011682018060405250810190611408919061177e565b905061141486826117d1565b965089600381111561142857611428611810565b60ff168d600381111561143d5761143d611810565b60408051898152602081018590529081018a905260ff91909116907ff90525f10ae3738475f9bb823e7315be918cc41406be65f8ef776738956c7aef9060600160405180910390a35050505050509695505050505050565b5f808260038111156114a9576114a9611810565b036114c9575073fe31f71c1b106eac32f1a19239c9a9a72ddfb900919050565b60018260038111156114dd576114dd611810565b036114fd57507321114915ac6d5a2e156931e20b20b038ded0be7c919050565b600282600381111561151157611511611810565b03611531575073fe951b693a2fe54be5148614b109e316b567632f919050565b600382600381111561154557611545611810565b0361156557507318556da13313f3532c54711497a8fedac273220e919050565b6040517f466d7fef00000000000000000000000000000000000000000000000000000000815260040160405180910390fd5b8035600481106115a5575f80fd5b919050565b5f8083601f8401126115ba575f80fd5b50813567ffffffffffffffff8111156115d1575f80fd5b6020830191508360208285010111156115e8575f80fd5b9250929050565b5f805f805f805f60a0888a031215611605575f80fd5b61160e88611597565b9650602088013567ffffffffffffffff8082111561162a575f80fd5b6116368b838c016115aa565b909850965086915061164a60408b01611597565b955060608a013591508082111561165f575f80fd5b5061166c8a828b016115aa565b989b979a50959894979596608090950135949350505050565b803573ffffffffffffffffffffffffffffffffffffffff811681146115a5575f80fd5b5f80604083850312156116b9575f80fd5b6116c283611685565b946020939093013593505050565b5f602082840312156116e0575f80fd5b6116e982611685565b9392505050565b5f805f805f8060808789031215611705575f80fd5b61170e87611597565b9550602087013567ffffffffffffffff8082111561172a575f80fd5b6117368a838b016115aa565b909750955085915061174a60408a01611597565b9450606089013591508082111561175f575f80fd5b5061176c89828a016115aa565b979a9699509497509295939492505050565b5f6020828403121561178e575f80fd5b5051919050565b818382375f9101908152919050565b7f4e487b71000000000000000000000000000000000000000000000000000000005f52601160045260245ffd5b8181035f8312801583831316838312821617156117f0576117f06117a4565b5092915050565b8082018082111561180a5761180a6117a4565b92915050565b7f4e487b71000000000000000000000000000000000000000000000000000000005f52602160045260245ffd5b5f6020828403121561184d575f80fd5b815180151581146116e9575f80fdfea26469706673582212201df19be56016536360989bfa2c6626eeeef5edfd5e4e9ff317bba5074e1c631064736f6c63430008180033","linkReferences":{}},"methodIdentifiers":{"LFJ_ROUTER()":"3d5a49ee","MONDAY_ROUTER()":"23b5d76d","PANCAKE_ROUTER()":"e08836dd","UNISWAP_ROUTER()":"d8264920","USDC()":"89a30271","WMON()":"f1435d29","executeArb(uint8,bytes,uint8,bytes,uint256)":"37dc2218","executeArbUnchecked(uint8,bytes,uint8,bytes)":"b2f823f1","getBalances()":"00113e08","owner()":"8da5cb5b","setupApprovals()":"8a988a47","withdrawAllToken(address)":"ae4dd0fc","withdrawToken(address,uint256)":"9e281a98"},"id":0}